:020000040000FA
:06000000C5EF15F012002F
:020006001200E6
:060008006AEF13F0120084
:02000E000000F0
:020010000000EE
:06001800F8EF12F01200E7
:02001E000500DB
:10002000B92C000080000000280000000E00000035
:10003000D600000004000000582C000092010000CF
:1000400061000000C62B00000001000092000000CB
:0C005000A62B0000A8000000200000000B
:04005C00D9CFE6FF13
:10006000E1CFD9FF020EE126DE6ADD6A4ED800013B
:10007000B351FDE0B36B6AEC11F061D967EC0CF0A1
:10008000F6D7D9CFE6FFE1CFD9FF040EE126DE6A2D
:10009000DD6ADECF10F0DDCF11F0FD0EDBCF12F008
:1000A000FE0EDBCF13F011501318E8AE02D013345C
:1000B00004D01250105C135011581DE2020EDB6A7E
:1000C000030EDB6A020EDBCF10F0030EDBCF11F064
:1000D000D890115004E6EE0E105C000E115806E2A6
:1000E000020EDB2A030EEEE3DB2AECD7DF2A010E39
:1000F000D0E3DB2ACED7040EE15C02E2E16AE552EE
:10010000E16EE552E7CFD9FF1200936A956A98EC49
:1001100008F038EC0CF0F0EC12F0E80EE66E030E8E
:10012000E66EAFDFE552E552570EE66E120EE66E52
:10013000D8EC0EF0E552E552AE0EE66E240EE66EF9
:100140007AEC0FF0E552E552660EE66EB70EE66EFB
:100150003BEC10F0E552E552020EE66EE66A16EC54
:1001600011F0E552E5520A0EE66EE66A28EC11F04F
:10017000E552E552320EE66EE66A47EC11F0E552C2
:10018000E55266EF11F0D9CFE6FFE1CFD9FFFE0EC1
:10019000DBCF11F0800E11141AE1FD0EDBCF12F04F
:1001A000FE0EDBCF13F0133404E212500708000EEA
:1001B00013540DE3FD0EDBCFE9FFFE0EDBCFEAFFAC
:1001C000000EE926010EEA22EF508310836EE552FD
:1001D000E7CFD9FF1200D9CFE6FFE1CFD9FFFE0E5E
:1001E000DBCF11F0800E11141AE1FD0EDBCF12F0FF
:1001F000FE0EDBCF13F0133404E212500708000E9A
:1002000013540DE3FD0EDBCFE9FFFE0EDBCFEAFF5B
:10021000000EE926010EEA22EF1C8314836EE552DC
:10022000E7CFD9FF1200D9CFE6FFE1CFD9FFFD0E0E
:10023000DBCFE9FFFE0EDBCFEAFF080EE926010E59
:10024000EA22EF0415E1FD0EDBCFE6FFFE0EDBCF69
:10025000E6FFC1DFE552E552FD0EDBCFE9FFFE0E02
:10026000DBCFEAFF080EE926010EEA22EF6A15D07D
:10027000FD0EDBCFE6FFFE0EDBCFE6FF84DFE552AF
:10028000E552FD0EDBCFE9FFFE0EDBCFEAFF080EE5
:10029000E926010EEA22010EEF6EE552E7CFD9FF03
:1002A0001200D9CFE6FFE1CFD9FF020EE126DE6AC8
:1002B000DD6ADECF10F0DDCF11F0113404E2105012
:1002C0000708000E115421E3DECFE6FFDDCFE6FF85
:1002D0005ADFE552E552F40EE66E010EE66ED1DE0F
:1002E000E552E552DECFE6FFDDCFE6FF74DFE552F3
:1002F000E552F40EE66E010EE66EC3DEE552E552FF
:10030000DF2A010ED6E3DB2AD4D7020EE15C02E23B
:10031000E16AE552E16EE552E7CFD9FF1200000134
:10032000010E841903E1855101E1010C000C00016B
:10033000010E861903E1875101E1010C000C010156
:1003400084510F0A01E1ADD3010A01E157D3030A39
:1003500001E1DCD2010A01E18AD2040A01E174D28E
:10036000010A01E15ED2020A01E1DED1010A01E1E6
:100370008AD10C0A01E145D1020A01E108D1070A3C
:1003800001E1B2D0010A01E1A3D0030A47E0110A5A
:100390003CE0100A01E0F8D3892BF60EE66E280E39
:1003A000E66EE66AE66AADEC0EF0E552E552E5521D
:1003B000E552E50EE66E280EE66EE66A010EE66E82
:1003C000ADEC0EF0E552E552E552E552E4EC06F0F4
:1003D000D4EC06F000090AE00101856B866B876B9F
:1003E000886B896B640E906F010E846F01018951D7
:1003F000106E116AD890115004E6C80E105C000E01
:10040000115801E2C2D3100EF6D0896B38EC0CF013
:1004100081EC06F0000901E1B8D3B6D0D40EE66E47
:10042000280EE66EE66AE66AADEC0EF0E552E5529D
:10043000E552E5520101892B81EC06F0000937E015
:10044000440E0101FE5D11E101018507D20EE66E49
:10045000280EE66E85C1E6FF010EE66EADEC0EF0ED
:10046000E552E552E552E55222D0FEC110F0116A84
:10047000126A136AFEC1E6FF11C0E6FF12C0E6FF72
:1004800013C0E6FF85C1E6FF010EE66E86EC0DF0B7
:10049000146E060EE15E145001018551EA6AF90FEF
:1004A000E96E010EEA22FEC1EFFF852B896B040E77
:1004B0000101855D03E3856B020E846F640E895D27
:1004C00001E3846BD4EC06F0000901E15ED35CD05B
:1004D000896B64DB000905E038EC0CF00101030EC8
:1004E0008AD00101080E87D0C10EE66E280EE66E96
:1004F000E66AE66AADEC0EF0E552E552E552E552E9
:100500000101892B81EC06F000092EE0440E010167
:10051000FE5D11E101018507D20EE66E280EE66E42
:1005200085C1E6FF010EE66EADEC0EF0E552E55238
:10053000E552E55219D0BF0EE66E280EE66E86C172
:10054000E6FF010EE66EADEC0EF0E552E552E55227
:10055000E55201018651EA6AF30FE96E010EEA22C3
:10056000FEC1EFFF862B896B060E0101865D03E35A
:10057000040E846F896B640E895D01E3846BD4EC97
:1005800006F0000901E101D30101846B1200892BFF
:100590006ADB000932E0FADA000910E001018C514F
:1005A0008D110CE038EC0CF00101896B0A0E8B5DAB
:1005B00002E00A0E01D00B0E846F8B6BE7DA0009A4
:1005C00009E001018C518D1105E138EC0CF00101BD
:1005D0000C0E846FE9DB00090CE101018951106EFA
:1005E000116AD890115004E6C80E105C000E115824
:1005F00007E30101060E846F12000101090E846FEA
:100600001200892BAE0EE66E280EE66EE66AE66AEA
:10061000ADEC0EF0E552E552E552E5529D0EE66E68
:10062000280EE66EE66A010EE66EADEC0EF0E552BF
:10063000E552E552E552C0DBA9DA000911E00101FB
:100640008C518D110DE038EC0CF00A0E01018B5D20
:1006500002E00A0E01D00B0E846F896B8B6B0DD0FC
:1006600095DA00090AE001018C518D1106E138ECA0
:100670000CF001010C0E846F896B640E0101895D21
:1006800001E283D27FD28C0EE66E280EE66EE66A19
:10069000E66AADEC0EF0E552E552E552E552010195
:1006A000892B0A0E8B6F2DDB00092EE0440E010111
:1006B000FE5D11E101018507D20EE66E280EE66EA1
:1006C00085C1E6FF010EE66EADEC0EF0E552E55297
:1006D000E552E55219D0BF0EE66E280EE66E87C1D0
:1006E000E6FF010EE66EADEC0EF0E552E552E55286
:1006F000E55201018751EA6AF30FE96E010EEA2221
:10070000FEC1EFFF872B896B060E0101875D03E3B6
:10071000040E846F896B640E895D01E3846B44DB96
:10072000000901E132D27BD07B0EE66E280EE66E28
:10073000E66AE66AADEC0EF0E552E552E552E552A6
:100740000101892BDEDA00093AE0440E0101FE5D69
:1007500011E101018507D20EE66E280EE66E85C115
:10076000E6FF010EE66EADEC0EF0E552E552E55205
:10077000E55225D0BF0EE66E280EE66E88C1E6FF74
:10078000010EE66EADEC0EF0E552E552E552E55293
:1007900001018A51060DF3CF10F0F4CF11F0480E8D
:1007A0001026010E112288510F011024E96E000E4F
:1007B0001120EA6EFEC1EFFF0101882B896B060E46
:1007C0000101885D24E338EC0CF06A0EE66E280E19
:1007D000E66EE66AE66AADEC0EF0E552E552E552E9
:1007E000E552E50EE66E280EE66EE66A010EE66E4E
:1007F000ADEC0EF0E552E552E552E552320EE66EF2
:10080000E66A3FDCE552E5520101846B896B640EB8
:10081000895D01E3846BC8DA000901E1B6D1010109
:10082000B1D1892B590EE66E280EE66EE66AE66AAD
:10083000ADEC0EF0E552E552E552E552320E010103
:10084000895D01E2A2D19ED1892B480EE66E280E69
:10085000E66EE66AE66AADEC0EF0E552E552E55268
:10086000E552320E0101895D01E28FD18BD1892BD6
:10087000370EE66E280EE66EE66AE66AADEC0EF01E
:10088000E552E552E552E552260EE66E280EE66E7A
:10089000E66A010EE66EADEC0EF0E552E552E55269
:1008A000E55258DA01080CE138EC0CF00A0E0101AF
:1008B0008B5D02E00A0E01D00B0E846F8B6B13D0A0
:1008C00049DA020808E10101896B38EC0CF00101FA
:1008D0000D0E846F09D03EDA030806E138EC0CF007
:1008E00001010F0E846F896B01018951106E116A2D
:1008F000D890115004E6C80E105C000E115801E3A8
:10090000846B52DA000901E140D1C9D0892B150E60
:10091000E66E280EE66EE66AE66AADEC0EF0E5528B
:10092000E552E552E552EDD9000937E0440E0101E8
:10093000FE5D11E101018507D20EE66E280EE66E1E
:1009400085C1E6FF010EE66EADEC0EF0E552E55214
:10095000E552E55222D0FEC110F0116A126A136A04
:10096000FEC1E6FF11C0E6FF12C0E6FF13C0E6FFBE
:1009700085C1E6FF010EE66E86EC0DF0146E060EE4
:10098000E15E145001018551EA6AF90FE96E010E2A
:10099000EA22FEC1EFFF852B896B040E0101855D04
:1009A00021E3FCD8000914E00A0EE66E280EE66E7C
:1009B000E66A010EE66EADEC0EF0E552E552E55248
:1009C000E552640E0101895D0DE3856B0C0E09D0C3
:1009D000E5D8000907E10101856B38EC0CF0010155
:1009E0000E0E846F640E0101895D03E30C0E846FAB
:1009F000856BDAD9000901E1C8D051D0892BF90EF5
:100A0000E66E270EE66EE66AE66AADEC0EF0E5529B
:100A1000E552E552E55275D900092EE0440E010178
:100A2000FE5D11E101018507D20EE66E280EE66E2D
:100A300085C1E6FF010EE66EADEC0EF0E552E55223
:100A4000E552E55219D0BF0EE66E280EE66E85C15E
:100A5000E6FF010EE66EADEC0EF0E552E552E55212
:100A6000E55201018551EA6AF30FE96E010EEA22AF
:100A7000FEC1EFFF852B896B640E0101895D03E3E5
:100A80000C0E846F856B060E855D06E3A6D9010109
:100A9000896B856B0C0E846F87D9000976E00101A4
:100AA00071D0892B900504E1E80EE66E270E06D082
:100AB000020E905D10E1D70EE66E270EE66EE66A36
:100AC000E66AADEC0EF0E552E552E552E552E50E70
:100AD000E66E280E0FD0D70EE66E270EE66EE66A9B
:100AE000E66AADEC0EF0E552E552E552E552C60E6F
:100AF000E66E270EE66EE66A010EE66EADEC0EF0CF
:100B0000E552E552E552E55225D9010810E1B50E4E
:100B1000E66E270EE66EE66AE66AADEC0EF0E5528A
:100B2000E552E552E5520101010E906FA8D912D9A4
:100B3000020810E10101020E906FA40EE66E270E6E
:100B4000E66EE66AE66AADEC0EF0E552E552E55275
:100B5000E55295D91BD8000903E001010C0E846F02
:100B600001018951106E116AD890115004E6C80E27
:100B7000105C000E115802E30C0E846F15D90009A9
:100B800004E00101846B1200846B12000001010E6D
:100B90009C1903E19D5101E10F0C000CD9CFE6FF38
:100BA000E1CFD9FF040EE126010EF36E020EF3CF62
:100BB000DBFF030EDB6ADF6A01018F51D880DF544F
:100BC00045E3010EF36E020EF3CFDBFF030EDB6A8B
:100BD000010EDB6A040EF36E010EDBCFF4FFF3505F
:100BE000F45C24E2010EDB50EA6AF90FE96E010EB3
:100BF000EA22EFCF10F0DF50040DF3CF11F0F4CF65
:100C000012F0200E1126010E1222010EDB501124CB
:100C1000E96E000E1220EA6EEF50105C04E0020E46
:100C2000DB6A030EDB6A010EDB2AD4D7D950020F30
:100C3000E96EDACFEAFF010EEE1806E1ED5004E1AD
:100C4000DFCF8AF1DF2803D0DF2AB6D7000E106E7F
:100C5000040EE15C02E2E16AE552E16E1050E552F9
:100C6000E7CFD9FF1200D9CFE6FFE1CFD9FF030EBE
:100C7000E126010EF36EDB6E020EDB6ADF6A060E02
:100C8000DF5C22E2DF50EA6AF30FE96E010EEA222E
:100C9000EFCF10F001018A51060DF3CF11F0F4CF20
:100CA00012F0480E1126010E1222DF501124E96EB7
:100CB000000E1220EA6EEF50105C04E0010EDB6AB9
:100CC000020EDB6ADF2ADBD7D950010FE96EDACFDB
:100CD000EAFF010EEE1808E1ED5006E101018A512C
:100CE0008C6F8D6B8A2901D0000E106E030EE15CB3
:100CF00002E2E16AE552E16E1050E552E7CFD9FF1A
:100D00001200D9CFE6FFE1CFD9FFE652DF6ADF500C
:100D10000F081AE3EA6ADF34FE0BEA36E96E800E4A
:100D2000E926000EEA22010EEE180CE1ED500AE170
:100D3000DF50EA6A100FE96E010EEA22EFCFFEF1F2
:100D4000010E03D0DF2AE3D7000EE552E552E7CFCC
:100D5000D9FF1200D9CFE6FFE1CFD9FFE652DF6A13
:100D6000DF500F081BE3EA6ADF34FE0BEA36E96E58
:100D7000800EE926000EEA22010EEE180DE1ED507C
:100D80000BE1DF50EA6A100FE96E010EEA22EFCFA5
:100D9000FEF10101FE5103D0DF2AE2D7000EE55239
:100DA000E552E7CFD9FF12000001010E981903E1C7
:100DB000995101E1010C000C000EE66EE66AC3ECED
:100DC00000F0E552E5521200000EE66EE66AEBEC2A
:100DD00000F0E552E55212001200D9CFE6FFE1CF54
:100DE000D9FFE65201018F2BDF6A050EDF5C1FE29F
:100DF000DF50EA6AF90FE96E010EEA22EF50E66E63
:100E000001018F51040DF3CF10F0F4CF11F0200E3B
:100E10001026010E1122DF500F011024E96E000E82
:100E20001120EA6EE552E750EF6EDF2ADED7DF6A67
:100E3000070EDF5C1FE2DF50EA6AF30FE96E010E76
:100E4000EA22EF50E66E01018F51060DF3CF10F04C
:100E5000F4CF11F0480E1026010E1122DF500F01C1
:100E60001024E96E000E1120EA6EE552E750EF6E95
:100E7000DF2ADED7E552E552E7CFD9FF1200D9CFFE
:100E8000E6FFE1CFD9FF020EE126010E90C1DBFFA4
:100E900001018F51F36E010EDBCFF4FFF350F45CD0
:100EA00030E2DF6A040EDF5C29E2010EDB28040D6C
:100EB000F3CF12F0F4CF13F0200E1226010E1322FE
:100EC000DF501224E96E000E1320EA6EEF50E66E3A
:100ED000010EDB50040DF3CF10F0F4CF11F0200E13
:100EE0001026010E1122DF501024E96E000E112091
:100EF000EA6EE552E750EF6EDF2AD4D7010EDB2A07
:100F0000C7D7010E90C1DBFF01018F51F36E010EB7
:100F1000DBCFF4FFF350F45C30E2DF6A060EDF5CF7
:100F200029E2010EDB28060DF3CF12F0F4CF13F007
:100F3000480E1226010E1322DF501224E96E000E15
:100F40001320EA6EEF50E66E010EDB50060DF3CF74
:100F500010F0F4CF11F0480E1026010E1122DF50D0
:100F60001024E96E000E1120EA6EE552E750EF6E94
:100F7000DF2AD4D7010EDB2AC7D78F07020EE15C28
:100F800002E2E16AE552E16EE552E7CFD9FF1200D5
:100F9000D9CFE6FFE1CFD9FF040EE126DE6ADD6A94
:100FA000DECF10F0DDCF11F0126A136A11AE02D05D
:100FB00012681368D950FB0FE96EFF0EDA20EA6E53
:100FC000EE50105CEE501158EE501258EE5013587F
:100FD0001DE2020EDB6A030EDB6A020EDBCF10F0AD
:100FE000030EDBCF11F0D890115004E6050E105C13
:100FF000000E115806E2020EDB2A030EEEE3DB2A96
:10100000ECD7DF2A010ECCE3DB2ACAD7040EE15C61
:1010100002E2E16AE552E16EE552E7CFD9FF120044
:10102000D9CFE6FFE1CFD9FF040EE126DE6ADD6A03
:10103000DECF10F0DDCF11F0126A136A11AE02D0CC
:1010400012681368D950FB0FE96EFF0EDA20EA6EC2
:10105000EE50105CEE501158EE501258EE501358EE
:101060001DE2020EDB6A030EDB6A020EDBCF10F01C
:10107000030EDBCF11F0D890115004E6EE0E105C99
:10108000000E115806E2020EDB2A030EEEE3DB2A05
:10109000ECD7DF2A010ECCE3DB2ACAD7040EE15CD1
:1010A00002E2E16AE552E16EE552E7CFD9FF1200B4
:1010B000D9CFE6FFE1CFD9FF0F0E8116FE0EDB5030
:1010C000F00B81128186010EE66EE66AE66AE66A38
:1010D000A7DFE552E552E552E5528196010EE66E34
:1010E000E66AE66AE66A9CDFE552E552E552E552B9
:1010F0000F0E8116FE0EDB38F00B81128186010E79
:10110000E66EE66AE66AE66A8BDFE552E552E5528C
:10111000E5528196010EE66EE66AE66AE66A80DFCF
:10112000E552E552E552E552E552E7CFD9FF12000C
:10113000D9CFE6FFE1CFD9FFE652190EE66EE66A97
:10114000E66AE66A6DDFE552E552E552E5520F0EBA
:101150008116F80E81160F0E8116300E81128186CF
:10116000010EE66EE66AE66AE66A5ADFE552E55285
:10117000E552E5528196010EE66EE66AE66AE66A97
:101180004FDFE552E552E552E5520F0E8116300E63
:1011900081128186010EE66EE66AE66AE66A40DF43
:1011A000E552E552E552E5528196010EE66EE66A99
:1011B000E66AE66A35DFE552E552E552E5520F0E82
:1011C0008116300E81128186010EE66EE66AE66AAD
:1011D000E66A26DFE552E552E552E5528196010EB8
:1011E000E66EE66AE66AE66A1BDFE552E552E5521C
:1011F000E5520F0E8116818A8186010EE66EE66A3F
:10120000E66AE66A0DDFE552E552E552E55281965F
:10121000010EE66EE66AE66AE66A02DFE552E5522C
:10122000E552E552280EE66E43DFE5520C0EE66EFF
:101230003FDFE552E552E552E7CFD9FF1200D9CFA3
:10124000E6FFE1CFD9FF020EE126DF6A010EDB6A7D
:1012500081940F0EE66EE66AE66AE66A99DEE5526A
:10126000E552E552E5520F0E81128186E66EE66A7E
:10127000E66AE66A8DDEE552E552E552E5520F0E6A
:101280008114E76E010EE7CFDBFF81960F0EE66E4D
:10129000E66AE66AE66A7CDEE552E552E552E55228
:1012A0000F0E81128186E66EE66AE66AE66A70DEF5
:1012B000E552E552E552E5520F0E8114DF6E010E44
:1012C000DB50DF128196010EE66EE66AE66AE66A98
:1012D0005FDEE552E552E552E552DF50106E020E38
:1012E000E15C02E2E16AE552E16E1050E552E7CFBF
:1012F000D9FF1200D9CFE6FFE1CFD9FFE652DF6A6E
:101300009EDFDF6EDFBEFCD7DF50E552E552E7CF50
:10131000D9FF1200D9CFE6FFE1CFD9FF0F0E81161A
:10132000FE0EDB5081128186050EE66EE66AE66AE5
:10133000E66A2EDEE552E552E552E5528196050E4B
:10134000E66EE66AE66AE66A23DEE552E552E552B3
:10135000E552E552E7CFD9FF1200D9CFE6FFE1CF42
:10136000D9FF8194050EE66EE66AE66AE66A10DE4B
:10137000E552E552E552E552FE0EDBCFE6FFCADF4D
:10138000E552FE0EDB38F00BE66EC4DFE552E552A7
:10139000E7CFD9FF1200D9CFE6FFE1CFD9FF818493
:1013A000050EE66EE66AE66AE66AF2DDE552E552A9
:1013B000E552E552FE0EDBCFE6FFACDFE552FE0E56
:1013C000DB38F00BE66EA6DFE5528194E552E7CFFD
:1013D000D9FF1200D9CFE6FFE1CFD9FFFE0EDBCF58
:1013E000E6FFD9DFE552E552E7CFD9FF1200D9CFAA
:1013F000E6FFE1CFD9FFFE0EDBCFE6FFCCDFE55203
:10140000E552E7CFD9FF1200D9CFE6FFE1CFD9FFF0
:10141000FD0EDBCFF6FFFE0EDBCFF7FF0800F55029
:101420000FE0FD0EDBCFF6FFDB2AFE0EDBCFF7FF72
:1014300001E3DB2A0800F550E66ED9DFE552E8D774
:10144000E552E7CFD9FF1200D9CFE6FFE1CFD9FFB0
:10145000E652FD0EDB500F0B106EFE0EDB50010B43
:10146000400DF3501024DF6E7F0EDF14800FDF6E0F
:10147000DFCFE6FF72DFE552E552E552E7CFD9FF55
:101480001200010EE66E69DFE552E66AE66ADCDF0D
:10149000E552E5521200D9CFE6FFE1CFD9FF050EA4
:1014A000E126010EF36EDB6E020EDB6A030EDB6AD1
:1014B000040EDB6ADF6ADFCF10F0116A10BE11681C
:1014C000FB0EDBCF12F0FC0EDBCF13F01150131824
:1014D000E8AE02D0133404D01250105C13501158EF
:1014E0002DE2FD0EDBCF10F0FE0EDBCF11F0126A05
:1014F000136A11AE02D012681368D950010FE96E59
:10150000DACFEAFF10C00BF011C00CF012C00DF0E2
:1015100013C00EF0EECF06F0EECF07F0EECF08F0DE
:10152000EFCF09F026EC15F005C0EDFF04C0EDFF8C
:1015300003C0EDFF02C0EFFFDF2ABDD7010EDBCFF6
:1015400010F0020EDBCF11F0030EDBCF12F0040E11
:10155000DBCF13F010C006F011C007F012C008F086
:1015600013C009F0050EE15C02E2E16AE552E16EAA
:10157000E552E7CFD9FF1200D9CFE6FFE1CFD9FF7F
:10158000020EE126DF6AFB0EDBCF10F0FC0EDBCF94
:1015900011F0FD0EDBCF12F0FE0EDBCF13F010507A
:1015A00011101210131005E1300EE66E20DFE55227
:1015B000F4D0D950FB0FE96EFF0EDA20EA6ED89016
:1015C000030EEB50000A08E6000EEE5C000EEE582B
:1015D000000EEE58000EEE5815E22D0EE66E07DFF7
:1015E000E552D950FB0FE96EFF0EDA20EA6E000ECD
:1015F000EE6CEF1EEE22EF1EEE22EF1EEF22ED52FA
:10160000ED52ED52DE52070EDD6E010EDBCF10F013
:10161000000EE76E1018E8AE02D0103403D0E75089
:10162000D880105401E3B9D0010EDB04146E156AA2
:1016300014BE156814C0E6FF15C0E6FF0A0EE66E7C
:10164000E66A29DFE552E552E552E55206C010F0A0
:1016500007C011F008C012F009C013F006C00BF06B
:1016600007C00CF008C00DF009C00EF0FB0EDBCF78
:1016700006F0FC0EDBCF07F0FD0EDBCF08F0FE0E10
:10168000DBCF09F05EEC15F00650071008100910CA
:1016900041E0010EDF6EDB04186E196A18BE19688E
:1016A00018C0E6FF19C0E6FF0A0EE66EE66AF3DE32
:1016B000E552E552E552E55206C014F007C015F0B8
:1016C00008C016F009C017F006C00BF007C00CF0F8
:1016D00008C00DF009C00EF0FB0EDBCF06F0FC0ECB
:1016E000DBCF07F0FD0EDBCF08F0FE0EDBCF09F0FD
:1016F0005EEC15F006C010F007C011F008C012F043
:1017000009C013F0300E1026000E112212221322EF
:10171000105003D0DF5004E0300EE66E68DEE55274
:10172000010EDB04146E156A14BE156814C0E6FFC2
:1017300015C0E6FF0A0EE66EE66AADDEE552E5523A
:10174000E552E55206C010F007C011F008C012F0D3
:1017500009C013F0D950FB0FE96EFF0EDA20EA6ED4
:1017600006C00BF007C00CF008C00DF009C00EF069
:10177000EECF06F0EECF07F0EECF08F0EFCF09F096
:101780005EEC15F005C0EDFF04C0EDFF03C0EDFFFA
:1017900002C0EFFF010EDB0638D7020EE15C02E269
:1017A000E16AE552E16EE552E7CFD9FF1200D9CFE9
:1017B000E6FFE1CFD9FFFD0EDBCFE6FFFE0EDBCF6C
:1017C000E6FF42DEE552E552D950F90FE96EFF0E11
:1017D000DA20EA6EEECFE6FFEECFE6FFEECFE6FFD1
:1017E000EFCFE6FFC9DEE552E552E552E552E5529C
:1017F000E7CFD9FF1200D9CFE6FFE1CFD9FFFD0E29
:10180000DBCFE6FFFE0EDBCFE6FF1EDEE552E55244
:10181000FB0EDBCFE6FFFC0EDBCFE6FFF5DDE5528E
:10182000E552E552E7CFD9FF1200D9CFE6FFE1CF6D
:10183000D9FFD2C010F0D3C011F0040ED8901036EA
:101840001136E806FBE1D30E1026010E11221050CE
:101850000001D425E96E1150D521EA6EFE0EDBCFD2
:10186000EFFFD42B000ED523E552E7CFD9FF1200AE
:10187000D9CFE6FFE1CFD9FFE652DF6ADFCF10F024
:10188000100EE76E1018E8AE02D0E73402D0E75031
:10189000105C18E2DFCFE9FFEA6AE9BEEA68D30E1E
:1018A000E926010EEA22200EEF6EDFCFE9FFEA6A99
:1018B000E9BEEA68E30EE926010EEA22200EEF6E89
:1018C000DF2ADCD7E552E552E7CFD9FF1200D9CFA6
:1018D000E6FFE1CFD9FFE6520101D251030A52E0FF
:1018E000010A36E0030A1AE0010A67E1E66AE66ADD
:1018F000ABDDE552E552DF6A080EDF5C0CE2DF503B
:10190000EA6AD30FE96E010EEA22EF50E66E6FDD50
:10191000E552DF2AF1D70101010E32D0080EE66E42
:10192000E66A92DDE552E552DF6A080EDF5C0DE201
:10193000080EDF24EA6AD30FE96E010EEA22EF50A7
:10194000E66E55DDE552DF2AF0D70101020E18D010
:10195000E66A010EE66E78DDE552E552DF6A080EB2
:10196000DF5C0CE2DF50EA6AE30FE96E010EEA2267
:10197000EF50E66E3CDDE552DF2AF1D70101030EA0
:10198000D26F1CD0080EE66E010EE66E5DDDE552EC
:10199000E552DF6A080EDF5C0DE2080EDF24EA6A1A
:1019A000E30FE96E010EEA22EF50E66E20DDE5520C
:1019B000DF2AF0D70101D26B01D0D26BE552E5529C
:1019C000E7CFD9FF1200D9CFE6FFE1CFD9FFE6522A
:1019D0000101D251010A1BE0010A32E1E66AE66A1E
:1019E00033DDE552E552DF6A100EDF5C0CE2DF50BA
:1019F000EA6AD30FE96E010EEA22EF50E66EF7DCD9
:101A0000E552DF2AF1D70101010ED26F1AD0E66A42
:101A1000010EE66E19DDE552E552DF6A100EDF5C5D
:101A20000CE2DF50EA6AE30FE96E010EEA22EF50A2
:101A3000E66EDDDCE552DF2AF1D70101D26B01D081
:101A4000D26BE552E552E7CFD9FF1200D9CFE6FFBE
:101A5000E1CFD9FFE652E66AE66AF6DCE552E552E6
:101A6000DF6A100EDF5C0CE2DF50EA6AD30FE96E2A
:101A7000010EEA22EF50E66EBADCE552DF2AF1D71A
:101A8000E66A010EE66EE0DCE552E552DF6A100E12
:101A9000DF5C0CE2DF50EA6AE30FE96E010EEA2236
:101AA000EF50E66EA4DCE552DF2AF1D7E552E552AD
:101AB000E7CFD9FF1200D9CFE6FFE1CFD9FFFE0E65
:101AC000DB50010B0001D26FD36BFD0EDB500F0B0F
:101AD000D46FD56BD2C010F0D3C011F0040ED890E3
:101AE00010361136E806FBE1D30E1026010E112246
:101AF00010500001D425E96E1150D521EA6EFC0E7C
:101B0000DBCFEFFFE552E7CFD9FF1200D9CFE6FFD9
:101B1000E1CFD9FF020EE126DF6AFE0EDB50010B9A
:101B20000001D26FD36BFD0EDB500F0BD46FD56B62
:101B3000F90EDBCF10F0FA0EDBCF11F0FB0EDBCF8E
:101B400012F0FC0EDBCF13F0105011101210131016
:101B500005E1300EE66E69DEE552F5D0D950F90F99
:101B6000E96EFF0EDA20EA6ED890030EEB50000A01
:101B700008E6000EEE5C000EEE58000EEE58000E69
:101B8000EE5815E22D0EE66E50DEE552D950F90FF3
:101B9000E96EFF0EDA20EA6E000EEE6CEF1EEE220A
:101BA000EF1EEE22EF1EEF22ED52ED52ED52DE520D
:101BB000070EDD6E010EDBCF10F0000EE76E101881
:101BC000E8AE02D0103403D0E750D880105401E3BF
:101BD000BAD0010EDB04146E156A14BE156814C069
:101BE000E6FF15C0E6FF0A0EE66EE66A54DCE55233
:101BF000E552E552E55206C010F007C011F008C0EA
:101C000012F009C013F006C00BF007C00CF008C0BA
:101C10000DF009C00EF0F90EDBCF06F0FA0EDBCFA7
:101C200007F0FB0EDBCF08F0FC0EDBCF09F05EEC1B
:101C300015F0065007100810091041E0010EDF6E84
:101C4000DB04186E196A18BE196818C0E6FF19C0BF
:101C5000E6FF0A0EE66EE66A1EDCE552E552E55244
:101C6000E55206C014F007C015F008C016F009C010
:101C700017F006C00BF007C00CF008C00DF009C04B
:101C80000EF0F90EDBCF06F0FA0EDBCF07F0FB0EFD
:101C9000DBCF08F0FC0EDBCF09F05EEC15F006C0E0
:101CA00010F007C011F008C012F009C013F0300E98
:101CB0001026000E112212221322105003D0DF50E2
:101CC00004E0300EE66EB1DDE552010EDB04146E69
:101CD000156A14BE156814C0E6FF15C0E6FF0A0EAB
:101CE000E66EE66A4BEC0AF0E552E552E552E55243
:101CF00006C010F007C011F008C012F009C013F0C0
:101D0000D950F90FE96EFF0EDA20EA6E06C00BF02B
:101D100007C00CF008C00DF009C00EF0EECF06F0C1
:101D2000EECF07F0EECF08F0EFCF09F05EEC15F044
:101D300005C0EDFF04C0EDFF03C0EDFF02C0EFFFE3
:101D4000010EDB0637D7020EE15C02E2E16AE552E2
:101D5000E16EE552E7CFD9FF1200D9CFE6FFE1CF20
:101D6000D9FFFE0EDB50010B0001D26FD36BFD0ECD
:101D7000DB500F0BD46FD56BFB0EDBCFF6FFFC0EE9
:101D8000DBCFF7FF0800F5500FE0FB0EDBCFF6FFCF
:101D9000DB2AFC0EDBCFF7FF01E3DB2A0800F5505E
:101DA000E66E43DDE552E8D7E552E7CFD9FF1200F2
:101DB000D9CFE6FFE1CFD9FFD59EFD0EDBCFA8F04E
:101DC000FE0EDBCFA9F0D59C13681468156AA8C075
:101DD00016F0A9C017F0186A1650135C106E175051
:101DE0001458116E18501558126E0C6A010E0D6EB3
:101DF0000E6A10C007F011C008F012C009F0AAEC7A
:101E000014F00350D66E13681468156AA8C016F053
:101E1000A9C017F0186A1650135C106E17501458AA
:101E2000116E18501558126E0C6A010E0D6E0E6A66
:101E300010C007F011C008F012C009F0AAEC14F0AD
:101E400007C010F008C011F009C012F00750D76E9B
:101E5000D59AD586F28AF294F184D58EE552E7CFF1
:101E6000D9FF1200D59E120013681468156AA8C025
:101E700016F0A9C017F0186A1650135C106E1750B0
:101E80001458116E18501558126E0C6A010E0D6E12
:101E90000E6A10C007F011C008F012C009F0AAECD9
:101EA00014F00350D66E13681468156AA8C016F0B3
:101EB000A9C017F0186A1650135C106E175014580A
:101EC000116E18501558126E0C6A010E0D6E0E6AC6
:101ED00010C007F011C008F012C009F0AAEC14F00D
:101EE00007C010F008C011F009C012F00750D76EFB
:101EF000D58E1200D9CFE6FFE1CFD9FFCD90FD0EF0
:101F0000DBCFAAF0FE0EDBCFABF013681468156AC6
:101F1000AAC016F0ABC017F0186A1650135C106E0A
:101F200017501458116E18501558126E0C6A010E85
:101F30000D6E0E6A10C007F011C008F012C009F053
:101F4000AAEC14F00750CF6E13681468156AAAC083
:101F500016F0ABC017F0186A1650135C106E1750CD
:101F60001458116E18501558126E0C6A010E0D6E31
:101F70000E6A10C007F011C008F012C009F0AAECF8
:101F800014F003C010F004C011F005C012F00350AB
:101F9000CE6E9D809E909F90CD8ECD8CCD98CD9A0B
:101FA000CD96CD92CD80E552E7CFD9FF12001368D0
:101FB0001468156AAAC016F0ABC017F0186A16505C
:101FC000135C106E17501458116E18501558126E7D
:101FD0000C6A010E0D6E0E6A10C007F011C008F0F9
:101FE00012C009F0AAEC14F00750CF6E1368146801
:101FF000156AAAC016F0ABC017F0186A1650135C29
:10200000106E17501458116E18501558126E0C6A35
:10201000010E0D6E0E6A10C007F011C008F012C05C
:1020200009F0AAEC14F003C010F004C011F005C0D0
:1020300012F00350CE6ECD801200CD901200D9CF99
:10204000E6FFE1CFD9FFCA94CC6AFE0EDB50000157
:10205000AC6FAD6BCB6E9D829E929F92CA90CA92DE
:10206000CA84E552E7CFD9FF1200ACC0CBFFCA84C7
:102070001200CA941200D9CFE6FFE1CFD9FFB19088
:10208000FD0EDBCFAEF0FE0EDBCFAFF013681468B1
:10209000156AAEC016F0AFC017F0186A1650135C80
:1020A000106E17501458116E18501558126E0C6A95
:1020B000010E0D6E0E6A10C007F011C008F012C0BC
:1020C00009F0AAEC14F00750B36E13681468156A8F
:1020D000AEC016F0AFC017F0186A1650135C106E41
:1020E00017501458116E18501558126E0C6A010EC4
:1020F0000D6E0E6A10C007F011C008F012C009F092
:10210000AAEC14F003C010F004C011F005C012F0E6
:102110000350B26EA082A192A292B18EB198B19AF0
:10212000B192B180E552E7CFD9FF1200136814686D
:10213000156AAEC016F0AFC017F0186A1650135CDF
:10214000106E17501458116E18501558126E0C6AF4
:10215000010E0D6E0E6A10C007F011C008F012C01B
:1021600009F0AAEC14F00350B26E13681468156AF3
:10217000AEC016F0AFC017F0186A1650135C106EA0
:1021800017501458116E18501558126E0C6A010E23
:102190000D6E0E6A10C007F011C008F012C009F0F1
:1021A000AAEC14F007C010F008C011F009C012F03A
:1021B0000750B36EB1801200B19012000001B82B2D
:1021C000000EB923C051B85DC151B95904E3B86BD1
:1021D000B96B010EB06F12000001BA2B000EBB23C9
:1021E000C251BA5DC351BB5904E3BA6BBB6B010E5C
:1021F000B16F12000001BC2B000EBD23C451BC5DA9
:10220000C551BD5904E3BC6BBD6B010EB26F12002A
:102210000001BE2B000EBF23C651BE5DC751BF5982
:1022200004E3BE6BBF6B010EB36F1200D9CFE6FFA4
:10223000E1CFD9FFFD0EDBCFC0F0FE0EDBCFC1F04A
:102240000001B86BB96BB06BE552E7CFD9FF120054
:10225000D9CFE6FFE1CFD9FFFD0EDBCFC2F0FE0EF6
:10226000DBCFC3F0050E0D6E0E6AC2C008F0C3C00E
:1022700009F084EC14F008C0C2F009C0C3F00001FA
:10228000BA6BBB6BB16BE552E7CFD9FF1200D9CF68
:10229000E6FFE1CFD9FFFD0EDBCFC6F0FE0EDBCFB0
:1022A000C7F00A0E0D6E0E6AC6C008F0C7C009F06E
:1022B00084EC14F008C0C6F009C0C7F00001BE6B82
:0C22C000BF6BB36BE552E7CFD9FF1200F3
:0422CC000F0E946EEF
:1022D00082681200D9CFE6FFE1CFD9FF040EE126D4
:1022E000DE6ADD6ADECF10F0DDCF11F0D89011503C
:1022F00004E6040E105C000E115801E390D0DECF0E
:10230000E9FFDDCFEAFFA00EE926000EEA22EF1C6E
:10231000826E020EDB6A030EDB6A020EDBCF10F068
:10232000030EDBCF11F0D890115004E6040E105CC0
:10233000000E11586EE2020EDBCFE9FF030EDBCF79
:10234000EAFFA40EE926000EEA22EF5082143FE1D4
:10235000DECF14F0DDCF15F0D89014361536D890B6
:1023600014361536020EDB501424E96E030EDB50D2
:102370001520EA6ED890E936EA36800EE926000E7E
:10238000EA22EECF12F0EFCF13F0010E1226000E6C
:102390001322DECF10F0DDCF11F0D89010361136B9
:1023A000D89010361136020EDB501024E96E030E61
:1023B000DB501120EA6ED890E936EA36800EE92625
:1023C000000EEA2212C0EEFF13C0EDFF1BD0DECFDD
:1023D00010F0DDCF11F0D89010361136D8901036AD
:1023E0001136020EDB501024E96E030EDB50112073
:1023F000EA6ED890E936EA36800EE926000EEA2227
:10240000EE6AED6A020EDB2A030E01E286D7DB2AB2
:1024100084D7DF2A010E01E265D7DB2A63D7040ED9
:10242000E15C02E2E16AE552E16EE552E7CFD9FFF5
:102430001200D9CFE6FFE1CFD9FF040EE126DE6A14
:10244000DD6ADECF10F0DDCF11F0FD0EDBCF12F034
:10245000FE0EDBCF13F011501318E8AE02D0133488
:1024600004D01250105C135011581DE2020EDB6AAA
:10247000030EDB6A020EDBCF10F0030EDBCF11F090
:10248000D890115004E6EE0E105C000E115806E2D2
:10249000020EDB2A030EEEE3DB2AECD7DF2A010E65
:1024A000D0E3DB2ACED7040EE15C02E2E16AE5521A
:1024B000E16EE552E7CFD9FF1200D9CFE6FFE1CFB9
:1024C000D9FF040EE126DE6ADD6ADECF10F0DDCF33
:1024D00011F0D890115004E6040E105C000E115853
:1024E00075E2DECFE9FFDDCFEAFFA00EE926000EA0
:1024F000EA22EF1C826E020EDB6A030EDB6A020E1A
:10250000DBCF10F0030EDBCF11F0D890115004E6B2
:10251000040E105C000E11584AE2DECF10F0DDCF41
:1025200011F0D89010361136D89010361136020EB0
:10253000DB501024E96E030EDB501120EA6ED890B8
:10254000E936EA36800EE926000EEA22EE6AED6AE6
:10255000020EDBCFE9FF030EDBCFEAFFA40EE92674
:10256000000EEA22EF5082141CE1DECF10F0DDCF26
:1025700011F0D89010361136D89010361136020E60
:10258000DB501024E96E030EDB501120EA6ED89068
:10259000E936EA36800EE926000EEA22010EEE6EDA
:1025A000ED6A020EDB2A030EAAE3DB2AA8D78250CB
:1025B000816EE80EE66E030EE66E3BDFE552E552F5
:1025C000DF2A010E01E281D7DB2A7FD7040EE15C0E
:1025D00002E2E16AE552E16EE552E7CFD9FF12006F
:1025E000F28ED08EF28C1200F19CF292F2881200E0
:1025F000D8CFE4FFE0CFE4FFE46EDACFE4FFE2CF30
:10260000DAFFE9CFE4FFEACFE4FFF6CFE4FFF7CF4C
:10261000E4FFF5CFE4FFF3CFE4FFF4CFE4FFFACF1C
:10262000E4FF00EE00F0100EE80403E3EECFE4FF59
:10263000FBD700EE10F00A0EE80403E3EECFE4FF50
:10264000FBD7E652F2A407D032EC0FF0F29434EC50
:102650000FF0DEEC10F09EA007D01DEC10F09E9065
:10266000D7EC0FF0ECEC10F0A1A207D0DCEC10F0EE
:10267000A19296EC10F008EC11F0F2B2F2929EBA30
:102680009E9AE55200EE19F00A0EE80403E3E5CF46
:10269000EDFFFBD700EE0FF0100EE80403E3E5CFEB
:1026A000EDFFFBD7E5CFFAFFE5CFF4FFE5CFF3FF72
:1026B000E5CFF5FFE5CFF7FFE5CFF6FFE5CFEAFF82
:1026C000E5CFE9FFE5CFDAFFE550E5CFE0FFE5CF65
:1026D000D8FF1000DACFE4FFE2CFDAFFE9CFE4FF62
:1026E000EACFE4FFF6CFE4FFF7CFE4FFF5CFE4FF56
:1026F000F3CFE4FFF4CFE4FFFACFE4FF00EE00F005
:10270000100EE80403E3EECFE4FFFBD700EE10F079
:102710000A0EE80403E3EECFE4FFFBD7E652F2A48F
:1027200007D032EC0FF0F29434EC0FF0DEEC10F046
:102730009EA007D01DEC10F09E90D7EC0FF0ECECB3
:1027400010F0A1A207D0DCEC10F0A19296EC10F0F2
:1027500008EC11F0F2B2F2929EBA9E9AE55200EEA7
:1027600019F00A0EE80403E3E5CFEDFFFBD700EE16
:102770000FF0100EE80403E3E5CFEDFFFBD7E5CF44
:10278000FAFFE5CFF4FFE5CFF3FFE5CFF5FFE5CFA7
:10279000F7FFE5CFF6FFE5CFEAFFE5CFE9FFE5CFAD
:0427A000DAFF11004B
:0C27A40044656C65746564204944203174
:1027B000323334200044656C6574656420494420DC
:1027C000313131312000322E31323334202020207B
:1027D00020202020202000312E31313131202020B6
:1027E0002020202020202000312E313233342020A0
:1027F00020202020202020200050415353574F52AA
:1028000044202020202020202000494E56414C49C1
:102810004420494400555345524E414D4520202007
:10282000202020202000322E41444420202020203F
:1028300020332E44454C00312E4348414E474550ED
:102840004153532020202000555345524E414D45C1
:102850002057524F4E4720200050415353574F525C
:10286000442057524F4E4720200055504441544574
:10287000442050415353574F5244004E4557205027
:10288000415353574F524420202020004F4C4420A6
:1028900050415353574F5244202020200048415666
:1028A00045204120474F4F442044415920004F507C
:1028B000454E494E4720444F4F5220202020002AA9
:1028C00000454E5445522050415353574F524420D7
:1028D00020002000454E54455220555345524E414C
:1028E0004D452020002020202020202020202020B6
:1028F0002020202020005052455353202A20464FAC
:072900005220504153530027
:08290800006A0EAE8DEF14F021
:102910000D6C0E1EE86A0E22001E09AE95EF14F033
:10292000086C091EE86A0922001E9FEC15F009BE1A
:10293000A5EF14F000AE000C086C091EE86A09222D
:10294000046C051EE86A0522000C00BE9CEF14F022
:102950000188FF0C006A0EAEB5EF14F00C6C0D1E72
:102960000E1EE86A0D220E22001E09AEBFEF14F003
:10297000076C081E091EE86A08220922001E82EC64
:1029800015F009BED2EF14F000AE000C076C081E63
:10299000091EE86A08220922036C041E051E04228F
:0E29A0000522000C00BEC6EF14F00188FF0CEB
:0229AE001E0EFB
:1029B000F66E000EF76E000EF86E00010900F5507D
:1029C000CD6F0900F550CE6F03E1CD6701D03DD04A
:1029D0000900F550C86F0900F550C96F0900F5509E
:1029E000CA6F09000900F550E96E0900F550EA6E5A
:1029F000090009000900F550CB6F0900F550CC6FB4
:102A000009000900F6CFCFF0F7CFD0F0F8CFD1F022
:102A1000C8C0F6FFC9C0F7FFCAC0F8FF0001CB531A
:102A200002E1CC5307E00900F550EE6ECB07F8E267
:102A3000CC07F9D7CFC0F6FFD0C0F7FFD1C0F8FF61
:0C2A40000001CD07000ECE5BBFD71200D6
:042A4C0006500B0223
:102A5000F3CF02F0F4CF03F00C02F3500326000E84
:102A6000F420046E06500D02F3500426000EF420EC
:102A7000056E06500E02F350052607500B02F35068
:102A80000326F4500422000E052207500C02F350D6
:102A90000426F450052207500D02F3500526085075
:102AA0000B02F3500426F450052208500C02F35098
:0C2AB000052609500B02F3500526120009
:042ABC00056A046A39
:102AC000036A026A200EE76ED8900636073608368B
:102AD000093602360336043605360B50025C0C50BC
:102AE00003580D5004580E50055809E30B50025E70
:102AF0000C50035A0D50045A0E50055A062AE72E60
:042B0000E4D7120004
:0C2B0400056A046A036A180EE76ED89098
:102B10000736083609360336043605360C50035C92
:102B20000D5004580E50055807E30C50035E0D502D
:0E2B3000045A0E50055A072AE72EEAD7120063
:022B3E00056A26
:102B4000046A100EE76ED89008360936043605364A
:102B50000D50045C0E50055805E30D50045E0E50F8
:0A2B6000055A082AE72EF0D71200EC
:062B6A00800EF36E00EE88
:102B700000F00F0E01D81200EA6002D0EE6AFCD716
:0A2B8000F350E9601200EE6AFCD782
:062B8A001EEE00F02EEE2D
:102B900000F0F86A019CD7EC14F003EC00F02EEC86
:062BA00000F0FBD712005B
:0A2BA6000000000000000000000025
:102BB0000000000000000000000000000000010014
:062BC0000100010001000C
:0A2BC6000102040810204080000006
:102BD000000000000000010203410405064207084E
:102BE00009432A00454400000000010101010102DF
:102BF00003040000000000000000000000000000CE
:102C000000000000000000000000000000000102C1
:102C1000030405060101010101010303030303038A
:102C200000000000000000000000000000000000A4
:102C30000000000000000000000000000000000094
:102C40000000000000000000000000000000000084
:082C500000000000000200007A
:082C5800000000000000000074
:102C60001010101010101010181818181818181824
:102C70001C1C1C1C1C1C1C1C1E1E1E1E1E1E1E1E84
:102C80001F1F1F1F1F1F1F1F00000000000000004C
:102C90000000000000000000000000000000000034
:102CA0000000000000000000000000000000000024
:092CB0000000000000000000001B
:072CB9000000000000000014
:102CC0000000000000000000000000000000000004
:102CD00000000000000000000010204080010204FD
:012CE00008EB
:020000040030CA
:0100010002FC
:0100020003FA
:010003001EDE
:010005008179
:010006008178
:010008000FE8
:01000900C036
:01000A000FE6
:01000B00E014
:01000C000FE4
:01000D0040B2
:00000001FF
